:100CF60077656C636F6D65206865726500796F75E1
:100D06000063616E206E6F77006361737420796F84
:100D1600757200766F74650041004200430044001E
:100D26007468616E6B00726573756C7473006172C2
:100D360065006F757400636F6E67726174756C61C0
:100D460074696F6E730077696E7300636C617368A4
:100D5600006265747765656E0070726573732062F4
:0B0D66003100746F0073746172740040
:080F23000212000002080000A8
:100E92007508007509017F01120F117F327E001261
:0B0EA2000EAD7F80120F117F327E002A
:100EAD00E4FDFCD3ED9FEE6480F8EC648098501562
:100EBD00E4FBFA0BBB00010ABA04F8BBFCF50DBD4F
:050ECD0000010C80DEB5
:010ED20022FD
:100F11008FA0D2B6C2B0C2B17F017E00120EADC2A7
:020F2100B622F6
:060ED3007BFF7A0D791E81
:060ED9008B248A25892606
:100EDF00E4F527F528AB24AA25A92685288285279E
:100EEF0083120C74601BF5A0C2B1D2B0D2B67F01D1
:100EFF007E00120EADC2B60528E52870D8052780F2
:010F0F00D40D
:010F100022BE
:040DE000AB07AA06AD
:100DE4007522007523027C007D0AAF03AE02120C4B
:100DF400A1E52325E0241CF8A60408A6057C007DB3
:100E04000AAF03AE02120CA1AA06AB07E523152311
:100E140070021522E523B4FFCDE522B4FFC890008B
:100E240000AF82EF25E0241CF808E62430F9F5A091
:100E3400C2B1D2B0D2B67F017E00120EADC2B6A34B
:080E4400E5826403458370D9C7
:010E4C002283
:100E4D002091092092062093033094F430910B20C9
:100E5D0091FD0515E5157002051430920B2092FDDC
:100E6D000517E5177002051630930B2093FD051934
:100E7D00E5197002051830940B2094FD051BE51B38
:050E8D007002051A22AD
:100B11007F38120EA67F0E120EA67F01120EA67F3F
:100B210081120EA67BFF7A0C79F6120ED97F647EB4
:100B310000120EAD120E987BFF7A0D7903120ED9B9
:100B4100120EA97F14120EA67BFF7A0D7907120EE1
:100B5100D9120EA9120EAD7FC0120EA67BFF7A0D1F
:100B6100790F120ED9120EA97F14120EA67BFF7AED
:100B71000D7919120ED97F647E00120EAD120E98F6
:100B8100120ED3120EA97F84120EA67BFF7A0D7965
:100B910020120ED9120EA97F88120EA67BFF7A0DA4
:100BA1007922120ED9120EA97F8C120EA67BFF7A22
:100BB1000D7924120ED9120EA9120E4D7F01120EBB
:100BC100A67F83120EA67BFF7A0D7926120ED9120B
:100BD1000EA97F14120EA67BFF7A0D7903120ED98E
:070BE1007F647E00020EADEF
:10080000E4F508F509120E987BFF7A0D792C120E8B
:10081000D9120EA97F14120EA67BFF7A0D7934121D
:100820000ED9120EA97F14120EA67BFF7A0D79380D
:10083000120ED9120EA9120E98120ED3120EA97F03
:1008400084120EA67BFF7A0D7920120ED9120EA902
:100850007F88120EA67BFF7A0D7922120ED9120E16
:10086000A97F8C120EA67BFF7A0D7924120ED91265
:100870000EA97FC0120F117F647E00120EADAF155E
:10088000AE14120DE0120EA97FC4120EA6AF17AE61
:1008900016120DE0120EA97FC8120EA6AF19AE18DF
:1008A000120DE0120EA97FCC120EA6AF1BAE1A12CB
:1008B0000DE07F2C7E01120EAD85140A85150B8587
:1008C000160C85170D85180E85190F851A10851BB6
:1008D00011E4FF1EEF25E0240AF8E6FC08E6FDC35C
:1008E0009513E5126480F8EC64809840048C128DB6
:1008F000130FBF00010EEF64044E70D8E5136515A9
:100900007004E5126514704FE51365177004E51265
:1009100065166043E51365197004E51265186037C4
:10092000E513651B7004E512651A602B120E927BAD
:10093000FF7A0D793C120ED9120EA97FC4120EA6B1
:10094000120ED3120EA97F14120EA67BFF7A0D7918
:100950004C120ED9120EA9E51365177004E5126545
:10096000167055E51365157004E51265146049E5C8
:100970001365197004E5126518603DE513651B7079
:1009800004E512651A6031120E927BFF7A0D793CF4
:10099000120ED9120EA97FC4120EA67BFF7A0D7912
:1009A00020120ED9120EA97F14120EA67BFF7A0D0B
:1009B000794C120ED9120EA9E51365197004E512CF
:1009C00065187055E51365177004E51265166049E2
:1009D000E51365157004E5126514603DE513651BAC
:1009E0007004E512651A6031120E927BFF7A0D7960
:1009F0003C120ED9120EA97FC4120EA67BFF7A0DEF
:100A00007922120ED9120EA97F14120EA67BFF7A3C
:100A10000D794C120ED9120EA9E513651B7004E571
:100A200012651A7055E51365177004E512651660B6
:100A300049E51365197004E5126518603DE5136515
:100A4000157004E51265146031120E927BFF7A0D69
:100A5000793C120ED9120EA97FC4120EA67BFF7A22
:100A60000D7924120ED9120EA97F14120EA67BFF47
:100A70007A0D794C120ED9120EA9E50945086003CA
:100A8000020B107F01120EA67F82120EA67BFF7A48
:100A90000D7951120ED9120EA97F14120EA67BFFEA
:100AA0007A0D7957120ED9120EA9E513B51510E576
:100AB00012B5140B7FC2120F11120ED3120EA9E53C
:100AC00013B51716E512B516117FC5120F117BFF6E
:100AD0007A0D7920120ED9120EA9E513B51916E573
:100AE00012B518117FC9120F117BFF7A0D792212EE
:100AF0000ED9120EA9E513B51B16E512B51A117F12
:100B0000CD120F117BFF7A0D7924120ED9120EA986
:010B100022C2
:100D7100D295D290E4F51AF51BF518F519F516F58B
:100D810017F514F515C294C293C292C2917F38121D
:100D91000EA67F0E120EA6120E987BFF7A0D795FBA
:100DA100120ED9120EA97F14120EA67BFF7A0D79AD
:100DB10068120ED9120EA97FC0120EA67BFF7A0D02
:100DC100796B120ED97F647E00120EAD3090032034
:0F0DD10095FA309505120B1180F212080080FB85
:03000000020BE808
:0C0BE800787FE4F6D8FD758128020C2F00
:100C7400BB010CE58229F582E5833AF583E0225035
:100C840006E92582F8E622BBFE06E92582F8E2227F
:0D0C9400E58229F582E5833AF583E4932299
:100CA100BC000BBE0029EF8DF084FFADF022E4CC37
:100CB100F875F008EF2FFFEE33FEEC33FCEE9DEC00
:100CC100984005FCEE9DFE0FD5F0E9E4CEFD22ED46
:100CD100F8F5F0EE8420D21CFEADF075F008EF2F90
:100CE100FFED33FD4007985006D5F0F222C398FD81
:050CF1000FD5F0EA221E
:100BF400020D71E493A3F8E493A34003F68001F299
:100C040008DFF48029E493A3F85407240CC8C33301
:100C1400C4540F4420C8834004F456800146F6DFD0
:100C2400E4800B0102040810204080900F23E47E2E
:100C3400019360BCA3FF543F30E509541FFEE493C5
:100C4400A360010ECF54C025E060A840B8E493A38C
:100C5400FAE493A3F8E493A3C8C582C8CAC583CAB7
:100C6400F0A3C8C582C8CAC583CADFE9DEE780BE6F
:010F2B0000C5
:00000001FF
